:100000000C942A000C9447000C9447000C94470071
:100010000C9447000C9447000C9447000C94470044
:100020000C9447000C9447000C9447000C94470034
:100030000C9447000C9447000C9447000C94470024
:100040000C9447000C9447000C9447000C94470014
:100050000C94470011241FBECFE5D8E0DEBFCDBF12
:1000600010E0A0E6B0E0E2E8F1E102C005900D92F8
:10007000AE36B107D9F710E0AEE6B0E001C01D9290
:10008000A738B107E1F70E9425070C94BF080C942C
:100090000000EF92FF920F931F937B018C0120E0F1
:1000A00030E040E05FE40E94490388238CF0C801FF
:1000B000B70120E030E040E05FE40E94C1010E940F
:1000C000A9039B01AC01205030404040504806C07D
:1000D000C801B7010E94A9039B01AC01B901CA0183
:1000E0001F910F91FF90EF900895A0E0B0E0EBE733
:1000F000F0E00C944308DC012B01FA019C91923052
:1001000008F439C1EB018881823008F433C194309E
:1001100069F4843009F02FC111969C91119789815F
:10012000981709F428C1A5E6B0E025C1843009F488
:1001300021C18230A9F4923009F01DC19A01AD01AC
:1001400088E0EA010990AE01E90109929E0181501F
:10015000C1F7E201898111969C918923818308C1AD
:10016000923009F407C112962D903C901397EB0141
:100170008A819B811496AD90BD90CD90DC901797AD
:10018000EC80FD800E811F819101281B390BB90184
:1001900037FF04C066277727621B730B6032710537
:1001A0000CF061C0121613066CF537014801062EDB
:1001B00004C096948794779467940A94D2F721E0C8
:1001C00030E040E050E004C0220F331F441F551FB1
:1001D0006A95D2F721503040404050402E213F21B7
:1001E00040235123211531054105510521F021E01E
:1001F00030E040E050E079018A01E628F72808293C
:1002000019293CC0232BD1F1260E371E350146019A
:10021000062E04C096948794779467940A94D2F734
:1002200021E030E040E050E004C0220F331F441FC3
:10023000551F6A95D2F721503040404050402A2146
:100240003B214C215D21211531054105510521F04E
:1002500021E030E040E050E059016A01A628B728CB
:10026000C828D9280BC0821593052CF01C01AA249C
:10027000BB24650103C0EE24FF24870111969C91E5
:10028000D20111968C91981709F445C0992339F041
:10029000A80197012A193B094C095D0906C0A6016E
:1002A00095012E193F09400B510B57FD08C01182D3
:1002B0003382228224833583468357831DC081E0A5
:1002C00081833382228288279927DC01821B930B4A
:1002D000A40BB50B84839583A683B7830DC0220F2F
:1002E000331F441F551F24833583468357838281E0
:1002F000938101979383828324813581468157813D
:10030000DA01C9010197A109B1098F5F9F4FAF4F72
:10031000BF4328F30BC0918333822282EA0CFB1C7B
:100320000C1D1D1DE482F5820683178383E0808304
:10033000248135814681578157FF1AC0C901AA27F8
:1003400097FDA095BA2F81709070A070B0705695EF
:10035000479537952795822B932BA42BB52B848318
:100360009583A683B7838281938101969383828349
:10037000DF0101C0D201CD01CDB7DEB7E2E10C94BF
:100380005F08A0E2B0E0E7ECF1E00C944F0869836D
:100390007A838B839C832D833E834F835887E9E048
:1003A000EE2EF12CEC0EFD1ECE010196B7010E943F
:1003B000D2048E010F5E1F4FCE010596B8010E9438
:1003C000D2048A8991E089278A8BC701B801AE01DE
:1003D000475E5F4F0E9475000E94FD03A096E6E015
:1003E0000C946B08A0E2B0E0E8EFF1E00C944F0849
:1003F00069837A838B839C832D833E834F835887C5
:10040000F9E0EF2EF12CEC0EFD1ECE010196B701A6
:100410000E94D2048E010F5E1F4FCE010596B801D7
:100420000E94D204C701B801AE01475E5F4F0E942F
:1004300075000E94FD03A096E6E00C946B08A0E214
:10044000B0E0E5E2F2E00C94430869837A838B83A1
:100450009C832D833E834F835887CE010196BE0136
:10046000675F7F4F0E94D204CE010596BE016F5E8A
:100470007F4F0E94D2049985923088F0898982301A
:10048000C8F0943019F4823051F404C0843029F457
:10049000923081F485E690E0C6C0923049F420E0C5
:1004A0009A858A89981321E02A87CE010996BBC0D4
:1004B000823049F420E09A858A89981321E02A8BBA
:1004C000CE014196B0C02D843E844F8458886D88FB
:1004D0007E888F88988CEE24FF248701AA24BB2471
:1004E000650140E050E060E070E0E0E0F0E0C10174
:1004F00081709070892BE9F0E60CF71C081D191D1E
:100500009A01AB012A0D3B1D4C1D5D1D80E090E062
:10051000A0E0B0E0E614F7040805190520F481E036
:1005200090E0A0E0B0E0BA01A901480F591F6A1F8E
:100530007B1FAA0CBB1CCC1CDD1C97FE08C081E0F5
:1005400090E0A0E0B0E0A82AB92ACA2ADB2A3196B6
:10055000E032F10549F0660C771C881C991C569412
:10056000479437942794C3CFFA85EA892B893C892D
:100570008B859C85280F391F2E5F3F4F17C0CA01FE
:1005800081709070892B61F016950795F794E79428
:1005900080E090E0A0E0B0E8E82AF92A0A2B1B2BC3
:1005A00076956795579547952F5F3F4F77FDE7CF36
:1005B0000CC0440F551F661F771F17FD4160EE0CDE
:1005C000FF1C001F111F21503040403090E05907A0
:1005D00090E0690790E4790760F32B8F3C8FDB0193
:1005E000CA018F779070A070B07080349105A1051A
:1005F000B10561F447FD0AC0E114F10401051105DC
:1006000029F0405C5F4F6F4F7F4F40781A8EFE1786
:1006100011F081E08A8F4D8F5E8F6F8F78A383E01A
:10062000898FCE0149960E94FD03A096E2E10C94C9
:100630005F08A8E1B0E0EFE1F3E00C944F086983B4
:100640007A838B839C832D833E834F83588789E0F5
:10065000E82EF12CEC0EFD1ECE010196B7010E9492
:10066000D2048E010F5E1F4FCE010596B8010E9485
:10067000D2048985823040F08989823028F0C70110
:10068000B8010E944A0501C08FEF6896E6E00C941D
:100690006B08A8E1B0E0EFE4F3E00C944F08698345
:1006A0007A838B839C832D833E834F83588789E095
:1006B000E82EF12CEC0EFD1ECE010196B7010E9432
:1006C000D2048E010F5E1F4FCE010596B8010E9425
:1006D000D2048985823040F08989823028F0C701B0
:1006E000B8010E944A0501C08FEF6896E6E00C94BD
:1006F0006B08A8E1B0E0EFE7F3E00C944F086983E2
:100700007A838B839C832D833E834F83588789E034
:10071000E82EF12CEC0EFD1ECE010196B7010E94D1
:10072000D2048E010F5E1F4FCE010596B8010E94C4
:10073000D2048985823040F08989823028F0C7014F
:10074000B8010E944A0501C081E06896E6E00C9479
:100750006B08ACE0B0E0EFEAF3E00C945308698377
:100760007A838B839C83CE010196BE016B5F7F4FA2
:100770000E94D2048D81823061F1823050F1843048
:1007800021F48E81882351F12EC02F81388537FDC9
:1007900020C06E812F3131051CF06623F9F023C093
:1007A0008EE190E0821B930B29853A854B855C8511
:1007B00004C056954795379527958A95D2F76623B5
:1007C000B1F050954095309521953F4F4F4F5F4F79
:1007D0000EC020E030E040E050E009C02FEF3FEFD6
:1007E0004FEF5FE704C020E030E040E050E8B9019F
:1007F000CA012C96E2E00C946F08DF92EF92FF9210
:100800000F931F93FC01E480F58006811781D1804E
:100810008081823048F480E090E0A0E1B0E0E82AF6
:10082000F92A0A2B1B2BA5C0843009F49FC0823003
:1008300021F4EE24FF24870105C0E114F104010531
:10084000110519F4E0E0F0E096C0628173819FEF3A
:10085000623879070CF05BC022E83FEF261B370BAC
:100860002A3131052CF020E030E040E050E02AC091
:10087000B801A701022E04C0769567955795479554
:100880000A94D2F781E090E0A0E0B0E004C0880FC5
:10089000991FAA1FBB1F2A95D2F70197A109B10979
:1008A0008E219F21A023B1230097A105B10521F03E
:1008B00081E090E0A0E0B0E09A01AB01282B392B59
:1008C0004A2B5B2BDA01C9018F779070A070B07052
:1008D00080349105A105B10539F427FF09C0205CDA
:1008E0003F4F4F4F5F4F04C0215C3F4F4F4F5F4F13
:1008F000E0E0F0E02030A0E03A07A0E04A07A0E402
:100900005A0710F0E1E0F0E079018A0127C0603871
:10091000710564F5FB01E158FF4FD801C7018F77DE
:100920009070A070B07080349105A105B10539F4C4
:10093000E7FE0DC080E490E0A0E0B0E004C08FE3EB
:1009400090E0A0E0B0E0E80EF91E0A1F1B1F17FFA1
:1009500005C016950795F794E794319687E01695AC
:100960000795F794E7948A95D1F705C0EE24FF2404
:100970008701EFEFF0E06E2F679566276795902F60
:100980009F77D794DD24D7948E2F8695492F462BB9
:10099000582F5D29B701CA011F910F91FF90EF9069
:1009A000DF900895FC01DB01408151812281622F9B
:1009B0006F7770E0221F2227221F9381892F880FD3
:1009C000822B282F30E0991F9927991F11969C930D
:1009D000119721153105A9F54115510561057105DD
:1009E00011F482E037C082E89FEF13969C938E93B8
:1009F00012979A01AB0167E0220F331F441F551F66
:100A00006A95D1F783E08C930DC0220F331F441FEA
:100A1000551F12968D919C911397019713969C9355
:100A20008E931297203080E0380780E0480780E4FA
:100A3000580758F314962D933D934D935C93179755
:100A400008952F3F310579F4411551056105710570
:100A500019F484E08C93089564FF03C081E08C93C3
:100A600012C01C9210C02F57304013963C932E9307
:100A7000129783E08C9387E0440F551F661F771F02
:100A80008A95D1F7706414964D935D936D937C9322
:100A9000179708951F93DC01FB019C91923008F495
:100AA00047C08081823008F443C0943051F41196DD
:100AB0001C91843099F58181682F70E0611B710968
:100AC0003FC0843021F0923031F48230B9F181811D
:100AD000882389F12DC011961C9111978230F1F075
:100AE00081811817D9F412962D913C911397828128
:100AF00093818217930794F028173907BCF0149656
:100B00008D919D910D90BC91A02D248135814681C0
:100B10005781281739074A075B0718F4112341F05A
:100B20000AC082179307A407B50740F4112319F0F0
:100B300061E070E005C06FEF7FEF02C060E070E041
:100B4000CB011F910895DF93CF9300D0CDB7DEB7CF
:100B50001A821982EAE2F0E088E18083E0E4F0E0C2
:100B600086E8808383E390E09A838983E9E2F0E07A
:100B700089818083E0E4F0E089819A81892F992737
:100B800080830F900F90CF91DF910895DF93CF93E3
:100B90000F92CDB7DEB78983EBE2F0E08081882F3A
:100BA00090E0807290700097B9F3ECE2F0E08981F8
:100BB00080830F90CF91DF910895DF93CF93CDB7CE
:100BC000DEB7EBE2F0E080818823DCF7ECE2F0E0D6
:100BD0008081CF91DF910895DF93CF9300D000D033
:100BE000CDB7DEB79C838B831A8219820FC029810F
:100BF0003A818B819C81FC01E20FF31F80810E946E
:100C0000C60589819A8101969A83898329813A81CF
:100C10008B819C81FC01E20FF31F8081882339F7CF
:100C20000F900F900F900F90CF91DF910895DF9369
:100C3000CF93CDB7DEB7E6E5F0E01082E0E2F0E07A
:100C400080E28083CF91DF910895DF93CF93CDB77A
:100C5000DEB7E6E5F0E084EA8083E6E5F0E0808157
:100C60008823DCF7CF91DF910895DF93CF930F9224
:100C7000CDB7DEB78983E3E2F0E089818083E6E5E2
:100C8000F0E084E88083E6E5F0E080818823DCF70B
:100C90000F90CF91DF910895DF93CF930F92CDB74F
:100CA000DEB78983E3E2F0E089818083E6E5F0E066
:100CB00084E88083E6E5F0E080818823DCF70F900C
:100CC000CF91DF910895DF93CF9300D0CDB7DEB7FA
:100CD0009A838983E981FA811082E6E5F0E084EC69
:100CE0008083E6E5F0E080818823DCF7E3E2F0E052
:100CF0008081E981FA8180830F900F90CF91DF91FD
:100D00000895DF93CF9300D0CDB7DEB79A83898360
:100D1000E6E5F0E084E88083E6E5F0E08081882382
:100D2000DCF7E3E2F0E08081E981FA8180830F90D3
:100D30000F90CF91DF910895DF93CF93CDB7DEB7BA
:100D4000E6E5F0E084E98083CF91DF910895DF93B9
:100D5000CF9300D00F92CDB7DEB78A836B83198211
:100D60000E9425068A810E944C068B810E944C06B7
:100D70000E9425068A8181600E944C06CE01019660
:100D80000E9481060E949C0689810F900F900F900F
:100D9000CF91DF910895DF93CF9300D000D00F92D1
:100DA000CDB7DEB78C836D831A8219821B820E94B5
:100DB00025068C810E944C068D810E944C060E9463
:100DC00025068C8181600E944C06CE0103960E940C
:100DD00063068B81882F90E0982F88279A838983D8
:100DE000CE0103960E9481060E949C068B81282FCB
:100DF00030E089819A81822B932B9A838983898120
:100E00009A810F900F900F900F900F90CF91DF91DC
:100E10000895DF93CF9300D00F92CDB7DEB78983CB
:100E20006A834B830E94250689810E944C068A8131
:100E30000E944C068B810E944C060E949C060F90DB
:100E40000F900F90CF91DF910895DF93CF93CDB79F
:100E5000DEB76D970FB6F894DEBF0FBECDBFE1E3EE
:100E6000F0E08FEF80830E94A3050E94170680E0C8
:100E700090E0AAEFB4E4898F9A8FAB8FBC8F698D15
:100E80007A8D8B8D9C8D20E030E04AEF54E40E94F7
:100E90001F02DC01CB018D8B9E8BAF8BB88F6D89D0
:100EA0007E898F89988D20E030E040E85FE30E94E2
:100EB000790388232CF481E090E09C8B8B8B3FC0DE
:100EC0006D897E898F89988D20E03FEF4FE757E449
:100ED0000E94190318164CF5698D7A8D8B8D9C8DA7
:100EE00020E030E040E251E40E941F02DC01CB012F
:100EF000BC01CD010E944900DC01CB019C8B8B8B96
:100F00000FC088EC90E09A8B898B89899A89019728
:100F1000F1F79A8B898B8B899C8901979C8B8B8BA2
:100F20008B899C89009769F714C06D897E898F89A8
:100F3000988D0E944900DC01CB019C8B8B8B8B89A7
:100F40009C89988B8F878F8598890197F1F7988B6B
:100F50008F870E94250682EA0E944C068FEF0E942E
:100F60004C0683EA0E944C06CE014D960E94630611
:100F70000E949C06E2E3F0E08FEF808380E090E047
:100F8000AAEFB4E48B879C87AD87BE876B857C8591
:100F90008D859E8520E030E04AEF54E40E941F02D8
:100FA000DC01CB018F839887A987BA876F81788509
:100FB00089859A8520E030E040E85FE30E9479036C
:100FC00088232CF481E090E09E838D833FC06F8165
:100FD000788589859A8520E03FEF4FE757E40E94A6
:100FE000190318164CF56B857C858D859E8520E050
:100FF00030E040E251E40E941F02DC01CB01BC0161
:10100000CD010E944900DC01CB019E838D830FC07E
:1010100088EC90E09C838B838B819C810197F1F716
:101020009C838B838D819E8101979E838D838D818F
:101030009E81009769F714C06F81788589859A85AC
:101040000E944900DC01CB019E838D838D819E81AE
:101050009A83898389819A810197F1F79A83898399
:101060008D8D882F90E02FE630E0B9014AE050E006
:101070000E947A0880E690E00E94EC058FE690E0FE
:101080000E94EC05F4CE2F923F924F925F926F92A6
:101090007F928F929F92AF92BF92CF92DF92EF9208
:1010A000FF920F931F93CF93DF93CDB7DEB7CA1B89
:1010B000DB0B0FB6F894DEBF0FBECDBF09942A88B4
:1010C000398848885F846E847D848C849B84AA845C
:1010D000B984C884DF80EE80FD800C811B81AA81E9
:1010E000B981CE0FD11D0FB6F894DEBF0FBECDBFB4
:1010F000ED010895FB019F01E8944230C4F04532B0
:10110000B4F44A3029F497FB1EF4909581959F4FD3
:10111000642F77270E94AB08805D8A330CF0895DCD
:101120008193CB010097A1F716F45DE251931082F1
:10113000C9010C949B08DC01FC01672F7191772396
:10114000E1F7329704C07C916D9370836291AE1782
:10115000BF07C8F30895AA1BBB1B51E107C0AA1F14
:10116000BB1FA617B70710F0A61BB70B881F991F48
:101170005A95A9F780959095BC01CD010895F894F2
:02118000FFCF9F
:0E11820020613D200000000000000000000081
:00000001FF
